{
  "_format": "hh-sol-artifact-1",
  "contractName": "TicketNFT",
  "sourceName": "src/TicketNFT.sol",
  "abi": [
    {
      "inputs": [],
      "stateMutability": "nonpayable",
      "type": "constructor"
    },
    {
      "anonymous": false,
      "inputs": [
        {
          "indexed": true,
          "internalType": "address",
          "name": "owner",
          "type": "address"
        },
        {
          "indexed": true,
          "internalType": "address",
          "name": "approved",
          "type": "address"
        },
        {
          "indexed": true,
          "internalType": "uint256",
          "name": "tokenId",
          "type": "uint256"
        }
      ],
      "name": "Approval",
      "type": "event"
    },
    {
      "anonymous": false,
      "inputs": [
        {
          "indexed": true,
          "internalType": "address",
          "name": "owner",
          "type": "address"
        },
        {
          "indexed": true,
          "internalType": "address",
          "name": "operator",
          "type": "address"
        },
        {
          "indexed": false,
          "internalType": "bool",
          "name": "approved",
          "type": "bool"
        }
      ],
      "name": "ApprovalForAll",
      "type": "event"
    },
    {
      "anonymous": false,
      "inputs": [
        {
          "indexed": false,
          "internalType": "uint256",
          "name": "eventId",
          "type": "uint256"
        },
        {
          "indexed": false,
          "internalType": "string",
          "name": "title",
          "type": "string"
        },
        {
          "indexed": false,
          "internalType": "uint256",
          "name": "startTime",
          "type": "uint256"
        },
        {
          "indexed": false,
          "internalType": "uint256",
          "name": "endTime",
          "type": "uint256"
        },
        {
          "indexed": false,
          "internalType": "string",
          "name": "location",
          "type": "string"
        },
        {
          "indexed": false,
          "internalType": "address",
          "name": "organizer",
          "type": "address"
        },
        {
          "indexed": false,
          "internalType": "uint256",
          "name": "maxTickets",
          "type": "uint256"
        }
      ],
      "name": "EventCreated",
      "type": "event"
    },
    {
      "anonymous": false,
      "inputs": [
        {
          "indexed": true,
          "internalType": "address",
          "name": "previousOwner",
          "type": "address"
        },
        {
          "indexed": true,
          "internalType": "address",
          "name": "newOwner",
          "type": "address"
        }
      ],
      "name": "OwnershipTransferred",
      "type": "event"
    },
    {
      "anonymous": false,
      "inputs": [
        {
          "indexed": false,
          "internalType": "uint256",
          "name": "tokenId",
          "type": "uint256"
        },
        {
          "indexed": false,
          "internalType": "uint256",
          "name": "eventId",
          "type": "uint256"
        },
        {
          "indexed": false,
          "internalType": "string",
          "name": "seatInfo",
          "type": "string"
        },
        {
          "indexed": false,
          "internalType": "uint256",
          "name": "price",
          "type": "uint256"
        },
        {
          "indexed": false,
          "internalType": "address",
          "name": "buyer",
          "type": "address"
        }
      ],
      "name": "TicketMinted",
      "type": "event"
    },
    {
      "anonymous": false,
      "inputs": [
        {
          "indexed": false,
          "internalType": "uint256",
          "name": "tokenId",
          "type": "uint256"
        }
      ],
      "name": "TicketUsed",
      "type": "event"
    },
    {
      "anonymous": false,
      "inputs": [
        {
          "indexed": true,
          "internalType": "address",
          "name": "from",
          "type": "address"
        },
        {
          "indexed": true,
          "internalType": "address",
          "name": "to",
          "type": "address"
        },
        {
          "indexed": true,
          "internalType": "uint256",
          "name": "tokenId",
          "type": "uint256"
        }
      ],
      "name": "Transfer",
      "type": "event"
    },
    {
      "inputs": [
        {
          "internalType": "address",
          "name": "to",
          "type": "address"
        },
        {
          "internalType": "uint256",
          "name": "tokenId",
          "type": "uint256"
        }
      ],
      "name": "approve",
      "outputs": [],
      "stateMutability": "nonpayable",
      "type": "function"
    },
    {
      "inputs": [
        {
          "internalType": "address",
          "name": "owner",
          "type": "address"
        }
      ],
      "name": "balanceOf",
      "outputs": [
        {
          "internalType": "uint256",
          "name": "",
          "type": "uint256"
        }
      ],
      "stateMutability": "view",
      "type": "function"
    },
    {
      "inputs": [
        {
          "internalType": "uint256",
          "name": "eventId",
          "type": "uint256"
        }
      ],
      "name": "cancelEvent",
      "outputs": [],
      "stateMutability": "nonpayable",
      "type": "function"
    },
    {
      "inputs": [
        {
          "internalType": "string",
          "name": "title",
          "type": "string"
        },
        {
          "internalType": "uint256",
          "name": "startTime",
          "type": "uint256"
        },
        {
          "internalType": "uint256",
          "name": "endTime",
          "type": "uint256"
        },
        {
          "internalType": "string",
          "name": "location",
          "type": "string"
        },
        {
          "internalType": "uint256",
          "name": "maxTickets",
          "type": "uint256"
        },
        {
          "internalType": "bool",
          "name": "hasReservedSeating",
          "type": "bool"
        }
      ],
      "name": "createEvent",
      "outputs": [
        {
          "internalType": "uint256",
          "name": "",
          "type": "uint256"
        }
      ],
      "stateMutability": "nonpayable",
      "type": "function"
    },
    {
      "inputs": [
        {
          "internalType": "uint256",
          "name": "",
          "type": "uint256"
        }
      ],
      "name": "eventHasReservedSeating",
      "outputs": [
        {
          "internalType": "bool",
          "name": "",
          "type": "bool"
        }
      ],
      "stateMutability": "view",
      "type": "function"
    },
    {
      "inputs": [
        {
          "internalType": "uint256",
          "name": "",
          "type": "uint256"
        }
      ],
      "name": "events",
      "outputs": [
        {
          "internalType": "uint256",
          "name": "id",
          "type": "uint256"
        },
        {
          "internalType": "string",
          "name": "title",
          "type": "string"
        },
        {
          "internalType": "uint256",
          "name": "startTime",
          "type": "uint256"
        },
        {
          "internalType": "uint256",
          "name": "endTime",
          "type": "uint256"
        },
        {
          "internalType": "string",
          "name": "location",
          "type": "string"
        },
        {
          "internalType": "address",
          "name": "organizer",
          "type": "address"
        },
        {
          "internalType": "bool",
          "name": "isActive",
          "type": "bool"
        },
        {
          "internalType": "uint256",
          "name": "maxTickets",
          "type": "uint256"
        },
        {
          "internalType": "uint256",
          "name": "ticketsSold",
          "type": "uint256"
        }
      ],
      "stateMutability": "view",
      "type": "function"
    },
    {
      "inputs": [
        {
          "internalType": "uint256",
          "name": "tokenId",
          "type": "uint256"
        }
      ],
      "name": "getApproved",
      "outputs": [
        {
          "internalType": "address",
          "name": "",
          "type": "address"
        }
      ],
      "stateMutability": "view",
      "type": "function"
    },
    {
      "inputs": [
        {
          "internalType": "address",
          "name": "owner_",
          "type": "address"
        }
      ],
      "name": "getTicketsByOwner",
      "outputs": [
        {
          "internalType": "uint256[]",
          "name": "",
          "type": "uint256[]"
        }
      ],
      "stateMutability": "view",
      "type": "function"
    },
    {
      "inputs": [
        {
          "internalType": "address",
          "name": "owner",
          "type": "address"
        },
        {
          "internalType": "address",
          "name": "operator",
          "type": "address"
        }
      ],
      "name": "isApprovedForAll",
      "outputs": [
        {
          "internalType": "bool",
          "name": "",
          "type": "bool"
        }
      ],
      "stateMutability": "view",
      "type": "function"
    },
    {
      "inputs": [
        {
          "internalType": "uint256",
          "name": "",
          "type": "uint256"
        },
        {
          "internalType": "string",
          "name": "",
          "type": "string"
        }
      ],
      "name": "isSeatTaken",
      "outputs": [
        {
          "internalType": "bool",
          "name": "",
          "type": "bool"
        }
      ],
      "stateMutability": "view",
      "type": "function"
    },
    {
      "inputs": [
        {
          "internalType": "uint256",
          "name": "tokenId",
          "type": "uint256"
        }
      ],
      "name": "isTicketValid",
      "outputs": [
        {
          "internalType": "bool",
          "name": "",
          "type": "bool"
        }
      ],
      "stateMutability": "view",
      "type": "function"
    },
    {
      "inputs": [
        {
          "internalType": "address",
          "name": "buyer",
          "type": "address"
        },
        {
          "internalType": "uint256",
          "name": "eventId",
          "type": "uint256"
        },
        {
          "internalType": "string",
          "name": "seatInfo",
          "type": "string"
        },
        {
          "internalType": "uint256",
          "name": "price",
          "type": "uint256"
        },
        {
          "internalType": "string",
          "name": "tokenURI_",
          "type": "string"
        }
      ],
      "name": "mintTicket",
      "outputs": [
        {
          "internalType": "uint256",
          "name": "",
          "type": "uint256"
        }
      ],
      "stateMutability": "nonpayable",
      "type": "function"
    },
    {
      "inputs": [],
      "name": "name",
      "outputs": [
        {
          "internalType": "string",
          "name": "",
          "type": "string"
        }
      ],
      "stateMutability": "view",
      "type": "function"
    },
    {
      "inputs": [],
      "name": "owner",
      "outputs": [
        {
          "internalType": "address",
          "name": "",
          "type": "address"
        }
      ],
      "stateMutability": "view",
      "type": "function"
    },
    {
      "inputs": [
        {
          "internalType": "uint256",
          "name": "tokenId",
          "type": "uint256"
        }
      ],
      "name": "ownerOf",
      "outputs": [
        {
          "internalType": "address",
          "name": "",
          "type": "address"
        }
      ],
      "stateMutability": "view",
      "type": "function"
    },
    {
      "inputs": [],
      "name": "renounceOwnership",
      "outputs": [],
      "stateMutability": "nonpayable",
      "type": "function"
    },
    {
      "inputs": [
        {
          "internalType": "address",
          "name": "from",
          "type": "address"
        },
        {
          "internalType": "address",
          "name": "to",
          "type": "address"
        },
        {
          "internalType": "uint256",
          "name": "tokenId",
          "type": "uint256"
        }
      ],
      "name": "safeTransferFrom",
      "outputs": [],
      "stateMutability": "nonpayable",
      "type": "function"
    },
    {
      "inputs": [
        {
          "internalType": "address",
          "name": "from",
          "type": "address"
        },
        {
          "internalType": "address",
          "name": "to",
          "type": "address"
        },
        {
          "internalType": "uint256",
          "name": "tokenId",
          "type": "uint256"
        },
        {
          "internalType": "bytes",
          "name": "data",
          "type": "bytes"
        }
      ],
      "name": "safeTransferFrom",
      "outputs": [],
      "stateMutability": "nonpayable",
      "type": "function"
    },
    {
      "inputs": [
        {
          "internalType": "address",
          "name": "operator",
          "type": "address"
        },
        {
          "internalType": "bool",
          "name": "approved",
          "type": "bool"
        }
      ],
      "name": "setApprovalForAll",
      "outputs": [],
      "stateMutability": "nonpayable",
      "type": "function"
    },
    {
      "inputs": [
        {
          "internalType": "bytes4",
          "name": "interfaceId",
          "type": "bytes4"
        }
      ],
      "name": "supportsInterface",
      "outputs": [
        {
          "internalType": "bool",
          "name": "",
          "type": "bool"
        }
      ],
      "stateMutability": "view",
      "type": "function"
    },
    {
      "inputs": [],
      "name": "symbol",
      "outputs": [
        {
          "internalType": "string",
          "name": "",
          "type": "string"
        }
      ],
      "stateMutability": "view",
      "type": "function"
    },
    {
      "inputs": [
        {
          "internalType": "uint256",
          "name": "",
          "type": "uint256"
        }
      ],
      "name": "tickets",
      "outputs": [
        {
          "internalType": "uint256",
          "name": "eventId",
          "type": "uint256"
        },
        {
          "internalType": "string",
          "name": "seatInfo",
          "type": "string"
        },
        {
          "internalType": "uint256",
          "name": "price",
          "type": "uint256"
        },
        {
          "internalType": "bool",
          "name": "isUsed",
          "type": "bool"
        },
        {
          "internalType": "uint256",
          "name": "purchaseTime",
          "type": "uint256"
        }
      ],
      "stateMutability": "view",
      "type": "function"
    },
    {
      "inputs": [
        {
          "internalType": "address",
          "name": "owner",
          "type": "address"
        },
        {
          "internalType": "uint256",
          "name": "index",
          "type": "uint256"
        }
      ],
      "name": "tokenOfOwnerByIndex",
      "outputs": [
        {
          "internalType": "uint256",
          "name": "",
          "type": "uint256"
        }
      ],
      "stateMutability": "view",
      "type": "function"
    },
    {
      "inputs": [
        {
          "internalType": "uint256",
          "name": "tokenId",
          "type": "uint256"
        }
      ],
      "name": "tokenURI",
      "outputs": [
        {
          "internalType": "string",
          "name": "",
          "type": "string"
        }
      ],
      "stateMutability": "view",
      "type": "function"
    },
    {
      "inputs": [],
      "name": "totalSupply",
      "outputs": [
        {
          "internalType": "uint256",
          "name": "",
          "type": "uint256"
        }
      ],
      "stateMutability": "view",
      "type": "function"
    },
    {
      "inputs": [
        {
          "internalType": "address",
          "name": "from",
          "type": "address"
        },
        {
          "internalType": "address",
          "name": "to",
          "type": "address"
        },
        {
          "internalType": "uint256",
          "name": "tokenId",
          "type": "uint256"
        }
      ],
      "name": "transferFrom",
      "outputs": [],
      "stateMutability": "nonpayable",
      "type": "function"
    },
    {
      "inputs": [
        {
          "internalType": "address",
          "name": "newOwner",
          "type": "address"
        }
      ],
      "name": "transferOwnership",
      "outputs": [],
      "stateMutability": "nonpayable",
      "type": "function"
    },
    {
      "inputs": [
        {
          "internalType": "uint256",
          "name": "tokenId",
          "type": "uint256"
        }
      ],
      "name": "useTicket",
      "outputs": [],
      "stateMutability": "nonpayable",
      "type": "function"
    },
    {
      "inputs": [
        {
          "internalType": "uint256",
          "name": "tokenId",
          "type": "uint256"
        },
        {
          "internalType": "address",
          "name": "attendee",
          "type": "address"
        }
      ],
      "name": "verifyTicket",
      "outputs": [
        {
          "internalType": "bool",
          "name": "",
          "type": "bool"
        }
      ],
      "stateMutability": "view",
      "type": "function"
    }
  ],
  "bytecode": "0x60806040523480156200001157600080fd5b506040518060400160405280600e81526020016d14db985c151a5e08151a58dad95d60921b815250604051806040016040528060058152602001640a69ca892b60db1b815250816000908162000068919062000195565b50600162000077828262000195565b505050620000946200008e6200009a60201b60201c565b6200009e565b62000261565b3390565b600680546001600160a01b038381166001600160a01b0319831681179093556040519116919082907f8be0079c531659141344cd1fd0a4f28419497f9722a3daafe3b4186f6b6457e090600090a35050565b634e487b7160e01b600052604160045260246000fd5b600181811c908216806200011b57607f821691505b6020821081036200013c57634e487b7160e01b600052602260045260246000fd5b50919050565b601f8211156200019057600081815260208120601f850160051c810160208610156200016b5750805b601f850160051c820191505b818110156200018c5782815560010162000177565b5050505b505050565b81516001600160401b03811115620001b157620001b1620000f0565b620001c981620001c2845462000106565b8462000142565b602080601f831160018114620002015760008415620001e85750858301515b600019600386901b1c1916600185901b1785556200018c565b600085815260208120601f198616915b82811015620002325788860151825594840194600190910190840162000211565b5085821015620002515787850151600019600388901b60f8161c191681555b5050505050600190811b01905550565b612d6280620002716000396000f3fe608060405234801561001057600080fd5b50600436106101cf5760003560e01c80635705175211610104578063a22cb465116100a2578063e985e9c511610071578063e985e9c514610436578063f2fde38b14610472578063f5851a8d14610485578063fb3ae56f1461049857600080fd5b8063a22cb465146103ea578063a48a1b90146103fd578063b88d4fde14610410578063c87b56dd1461042357600080fd5b806370a08231116100de57806370a08231146103b6578063715018a6146103c95780638da5cb5b146103d157806395d89b41146103e257600080fd5b806357051752146103605780636352211e1461038357806367aa23e21461039657600080fd5b806326606448116101715780633f69babd1161014b5780633f69babd146102d757806342842e0e146102ea57806350b44712146102fd57806350b8eb001461032157600080fd5b8063266064481461029e5780632c89897f146102b15780632f745c59146102c457600080fd5b8063095ea7b3116101ad578063095ea7b31461023c5780630b7914301461025157806318160ddd1461027957806323b872dd1461028b57600080fd5b806301ffc9a7146101d457806306fdde03146101fc578063081812fc14610211575b600080fd5b6101e76101e236600461240e565b6104ab565b60405190151581526020015b60405180910390f35b6102046104fd565b6040516101f3919061247b565b61022461021f36600461248e565b61058f565b6040516001600160a01b0390911681526020016101f3565b61024f61024a3660046124c3565b6105b6565b005b61026461025f36600461248e565b6106d0565b6040516101f3999897969594939291906124ed565b600d545b6040519081526020016101f3565b61024f61029936600461255a565b610837565b61024f6102ac36600461248e565b610868565b61027d6102bf366004612642565b6109ed565b61027d6102d23660046124c3565b610ccd565b61024f6102e536600461248e565b610d4f565b61024f6102f836600461255a565b610e2b565b61031061030b36600461248e565b610e46565b6040516101f39594939291906126ca565b6101e761032f366004612700565b6012602090815260009283526040909220815180830184018051928152908401929093019190912091525460ff1681565b6101e761036e36600461248e565b60116020526000908152604090205460ff1681565b61022461039136600461248e565b610f03565b6103a96103a4366004612747565b610f63565b6040516101f39190612762565b61027d6103c4366004612747565b611005565b61024f611079565b6006546001600160a01b0316610224565b61020461108d565b61024f6103f83660046127b6565b61109c565b61027d61040b3660046127e9565b6110ab565b61024f61041e366004612879565b6112af565b61020461043136600461248e565b6112e7565b6101e76104443660046128f5565b6001600160a01b03918216600090815260056020908152604080832093909416825291909152205460ff1690565b61024f610480366004612747565b611443565b6101e761049336600461291f565b6114bc565b6101e76104a636600461248e565b611503565b60006001600160e01b031982166380ac58cd60e01b14806104dc57506001600160e01b03198216635b5e139f60e01b145b806104f757506301ffc9a760e01b6001600160e01b03198316145b92915050565b60606000805461050c90612942565b80601f016020809104026020016040519081016040528092919081815260200182805461053890612942565b80156105855780601f1061055a57610100808354040283529160200191610585565b820191906000526020600020905b81548152906001019060200180831161056857829003601f168201915b5050505050905090565b600061059a826117e3565b506000908152600460205260409020546001600160a01b031690565b60006105c182610f03565b9050806001600160a01b0316836001600160a01b0316036106335760405162461bcd60e51b815260206004820152602160248201527f4552433732313a20617070726f76616c20746f2063757272656e74206f776e656044820152603960f91b60648201526084015b60405180910390fd5b336001600160a01b038216148061064f575061064f8133610444565b6106c15760405162461bcd60e51b815260206004820152603d60248201527f4552433732313a20617070726f76652063616c6c6572206973206e6f7420746f60448201527f6b656e206f776e6572206f7220617070726f76656420666f7220616c6c000000606482015260840161062a565b6106cb8383611833565b505050565b600f60205260009081526040902080546001820180549192916106f290612942565b80601f016020809104026020016040519081016040528092919081815260200182805461071e90612942565b801561076b5780601f106107405761010080835404028352916020019161076b565b820191906000526020600020905b81548152906001019060200180831161074e57829003601f168201915b50505050509080600201549080600301549080600401805461078c90612942565b80601f01602080910402602001604051908101604052809291908181526020018280546107b890612942565b80156108055780601f106107da57610100808354040283529160200191610805565b820191906000526020600020905b8154815290600101906020018083116107e857829003601f168201915b505050506005830154600684015460079094015492936001600160a01b03821693600160a01b90920460ff1692509089565b61084133826118a1565b61085d5760405162461bcd60e51b815260040161062a9061297c565b6106cb83838361191f565b3361087282610f03565b6001600160a01b0316148061089157506006546001600160a01b031633145b6108ce5760405162461bcd60e51b815260206004820152600e60248201526d139bdd08185d5d1a1bdc9a5e995960921b604482015260640161062a565b60008181526010602052604090206003015460ff16156109265760405162461bcd60e51b8152602060048201526013602482015272151a58dad95d08185b1c9958591e481d5cd959606a1b604482015260640161062a565b600081815260106020908152604080832054808452600f90925290912060050154600160a01b900460ff166109935760405162461bcd60e51b81526020600482015260136024820152724576656e74206973206e6f742061637469766560681b604482015260640161062a565b60008281526010602052604090819020600301805460ff19166001179055517f1f5d53e38fbc5a40092861e993062e74fb6dc7acef58356c7b55aa1afd8b3501906109e19084815260200190565b60405180910390a15050565b6000848152600f602052604081206005810154600160a01b900460ff16610a4c5760405162461bcd60e51b81526020600482015260136024820152724576656e74206973206e6f742061637469766560681b604482015260640161062a565b8060060154816007015410610a975760405162461bcd60e51b8152602060048201526011602482015270115d995b9d081a5cc81cdbdb19081bdd5d607a1b604482015260640161062a565b42816002015411610aea5760405162461bcd60e51b815260206004820152601960248201527f4576656e742068617320616c7265616479207374617274656400000000000000604482015260640161062a565b60008681526011602052604090205460ff1615610bba57600086815260126020526040908190209051610b1e9087906129c9565b9081526040519081900360200190205460ff1615610b765760405162461bcd60e51b815260206004820152601560248201527429b2b0ba1034b99030b63932b0b23c903a30b5b2b760591b604482015260640161062a565b60016012600088815260200190815260200160002086604051610b9991906129c9565b908152604051908190036020019020805491151560ff199092169190911790555b610bc8600780546001019055565b6000610bd360075490565b9050610bdf8882611a90565b610be98185611c0b565b6040805160a081018252888152602080820189815282840189905260006060840181905242608085015285815260109092529290208151815591519091906001820190610c369082612a33565b5060408201516002820155606082015160038201805460ff191691151591909117905560809091015160049091015560078201805460019190600090610c7d908490612b09565b90915550506040517f529c54ace838727fe84653e967e33c79b02360f70535487d25b1be275dd2ff5290610cba9083908a908a908a908e90612b1c565b60405180910390a1979650505050505050565b6000610cd883611005565b8210610d265760405162461bcd60e51b815260206004820152601960248201527f4f776e657220696e646578206f7574206f6620626f756e647300000000000000604482015260640161062a565b506001600160a01b03919091166000908152600a60209081526040808320938352929052205490565b6000818152600f6020526040902060058101546001600160a01b0316331480610d8257506006546001600160a01b031633145b610dbf5760405162461bcd60e51b815260206004820152600e60248201526d139bdd08185d5d1a1bdc9a5e995960921b604482015260640161062a565b6005810154600160a01b900460ff16610e1a5760405162461bcd60e51b815260206004820152601960248201527f4576656e7420697320616c726561647920696e61637469766500000000000000604482015260640161062a565b600501805460ff60a01b1916905550565b6106cb838383604051806020016040528060008152506112af565b60106020526000908152604090208054600182018054919291610e6890612942565b80601f0160208091040260200160405190810160405280929190818152602001828054610e9490612942565b8015610ee15780601f10610eb657610100808354040283529160200191610ee1565b820191906000526020600020905b815481529060010190602001808311610ec457829003601f168201915b50505050600283015460038401546004909401549293909260ff909116915085565b6000818152600260205260408120546001600160a01b0316806104f75760405162461bcd60e51b8152602060048201526018602482015277115490cdcc8c4e881a5b9d985b1a59081d1bdad95b88125160421b604482015260640161062a565b60606000610f7083611005565b905060008167ffffffffffffffff811115610f8d57610f8d612596565b604051908082528060200260200182016040528015610fb6578160200160208202803683370190505b50905060005b82811015610ffd57610fce8582610ccd565b828281518110610fe057610fe0612b5d565b602090810291909101015280610ff581612b73565b915050610fbc565b509392505050565b60006001600160a01b0382166110705760405162461bcd60e51b815260206004820152602a60248201527f4552433732313a2062616c616e636520717565727920666f7220746865207a65604482015269726f206164647265737360b01b606482015260840161062a565b6104f782611c78565b611081611cfe565b61108b6000611d58565b565b60606001805461050c90612942565b6110a7338383611daa565b5050565b60004286116110fc5760405162461bcd60e51b815260206004820152601e60248201527f4576656e74206d75737420737461727420696e20746865206675747572650000604482015260640161062a565b8585116111555760405162461bcd60e51b815260206004820152602160248201527f456e642074696d65206d7573742062652061667465722073746172742074696d6044820152606560f81b606482015260840161062a565b611163600880546001019055565b600061116e60085490565b604080516101208101825282815260208082018c81528284018c9052606083018b9052608083018a90523360a0840152600160c0840181905260e084018a905260006101008501819052868152600f90935293909120825181559051939450909290918201906111de9082612a33565b506040820151600282015560608201516003820155608082015160048201906112079082612a33565b5060a082015160058201805460c08501516001600160a01b039093166001600160a81b031990911617600160a01b9215159290920291909117905560e082015160068201556101009091015160079091015560008181526011602052604090819020805460ff1916851515179055517fc4d04fd077cc5722d82fd4b5ed55fd6d881c8d31b90c4b61e7061865255fd10190610cba9083908b908b908b908b9033908c90612b8c565b6112b933836118a1565b6112d55760405162461bcd60e51b815260040161062a9061297c565b6112e184848484611e78565b50505050565b60606112f282611eab565b61133e5760405162461bcd60e51b815260206004820152601f60248201527f55524920717565727920666f72206e6f6e6578697374656e7420746f6b656e00604482015260640161062a565b6000828152600960205260408120805461135790612942565b80601f016020809104026020016040519081016040528092919081815260200182805461138390612942565b80156113d05780601f106113a5576101008083540402835291602001916113d0565b820191906000526020600020905b8154815290600101906020018083116113b357829003601f168201915b5050505050905060006113ee60408051602081019091526000815290565b90508051600003611400575092915050565b81511561143257808260405160200161141a929190612be3565b60405160208183030381529060405292505050919050565b61143b84611ec8565b949350505050565b61144b611cfe565b6001600160a01b0381166114b05760405162461bcd60e51b815260206004820152602660248201527f4f776e61626c653a206e6577206f776e657220697320746865207a65726f206160448201526564647265737360d01b606482015260840161062a565b6114b981611d58565b50565b60006114c783611eab565b80156114ec5750816001600160a01b03166114e184610f03565b6001600160a01b0316145b80156114fc57506114fc83611503565b9392505050565b600061150e82611eab565b61151a57506000919050565b6000601060008481526020019081526020016000206040518060a00160405290816000820154815260200160018201805461155490612942565b80601f016020809104026020016040519081016040528092919081815260200182805461158090612942565b80156115cd5780601f106115a2576101008083540402835291602001916115cd565b820191906000526020600020905b8154815290600101906020018083116115b057829003601f168201915b50505050508152602001600282015481526020016003820160009054906101000a900460ff1615151515815260200160048201548152505090506000600f600083600001518152602001908152602001600020604051806101200160405290816000820154815260200160018201805461164690612942565b80601f016020809104026020016040519081016040528092919081815260200182805461167290612942565b80156116bf5780601f10611694576101008083540402835291602001916116bf565b820191906000526020600020905b8154815290600101906020018083116116a257829003601f168201915b5050505050815260200160028201548152602001600382015481526020016004820180546116ec90612942565b80601f016020809104026020016040519081016040528092919081815260200182805461171890612942565b80156117655780601f1061173a57610100808354040283529160200191611765565b820191906000526020600020905b81548152906001019060200180831161174857829003601f168201915b505050918352505060058201546001600160a01b0381166020830152600160a01b900460ff16151560408201526006820154606082015260079091015460809091015260c081015190915080156117be57508160600151155b80156117ce575080604001514210155b801561143b5750606001514211159392505050565b6117ec81611eab565b6114b95760405162461bcd60e51b8152602060048201526018602482015277115490cdcc8c4e881a5b9d985b1a59081d1bdad95b88125160421b604482015260640161062a565b600081815260046020526040902080546001600160a01b0319166001600160a01b038416908117909155819061186882610f03565b6001600160a01b03167f8c5be1e5ebec7d5bd14f71427d1e84f3dd0314c0f7b2291e5b200ac8c7c3b92560405160405180910390a45050565b6000806118ad83610f03565b9050806001600160a01b0316846001600160a01b031614806118f457506001600160a01b0380821660009081526005602090815260408083209388168352929052205460ff165b8061143b5750836001600160a01b031661190d8461058f565b6001600160a01b031614949350505050565b826001600160a01b031661193282610f03565b6001600160a01b0316146119585760405162461bcd60e51b815260040161062a90612c12565b6001600160a01b0382166119ba5760405162461bcd60e51b8152602060048201526024808201527f4552433732313a207472616e7366657220746f20746865207a65726f206164646044820152637265737360e01b606482015260840161062a565b6119c78383836001611f3b565b826001600160a01b03166119da82610f03565b6001600160a01b031614611a005760405162461bcd60e51b815260040161062a90612c12565b600081815260046020908152604080832080546001600160a01b03199081169091556001600160a01b0387811680865260038552838620805460001901905590871680865283862080546001019055868652600290945282852080549092168417909155905184937fddf252ad1be2c89b69c2b068fc378daa952ba7f163c4a11628f55a4df523b3ef91a4505050565b6001600160a01b038216611ae65760405162461bcd60e51b815260206004820181905260248201527f4552433732313a206d696e7420746f20746865207a65726f2061646472657373604482015260640161062a565b611aef81611eab565b15611b3c5760405162461bcd60e51b815260206004820152601c60248201527f4552433732313a20746f6b656e20616c7265616479206d696e74656400000000604482015260640161062a565b611b4a600083836001611f3b565b611b5381611eab565b15611ba05760405162461bcd60e51b815260206004820152601c60248201527f4552433732313a20746f6b656e20616c7265616479206d696e74656400000000604482015260640161062a565b6001600160a01b038216600081815260036020908152604080832080546001019055848352600290915280822080546001600160a01b0319168417905551839291907fddf252ad1be2c89b69c2b068fc378daa952ba7f163c4a11628f55a4df523b3ef908290a45050565b611c1482611eab565b611c605760405162461bcd60e51b815260206004820152601d60248201527f5552492073657420666f72206e6f6e6578697374656e7420746f6b656e000000604482015260640161062a565b60008281526009602052604090206106cb8282612a33565b60006001600160a01b038216611ce25760405162461bcd60e51b815260206004820152602960248201527f4552433732313a2061646472657373207a65726f206973206e6f7420612076616044820152683634b21037bbb732b960b91b606482015260840161062a565b506001600160a01b031660009081526003602052604090205490565b6006546001600160a01b0316331461108b5760405162461bcd60e51b815260206004820181905260248201527f4f776e61626c653a2063616c6c6572206973206e6f7420746865206f776e6572604482015260640161062a565b600680546001600160a01b038381166001600160a01b0319831681179093556040519116919082907f8be0079c531659141344cd1fd0a4f28419497f9722a3daafe3b4186f6b6457e090600090a35050565b816001600160a01b0316836001600160a01b031603611e0b5760405162461bcd60e51b815260206004820152601960248201527f4552433732313a20617070726f766520746f2063616c6c657200000000000000604482015260640161062a565b6001600160a01b03838116600081815260056020908152604080832094871680845294825291829020805460ff191686151590811790915591519182527f17307eab39ab6107e8899845ad3d59bd9653f200f220920489ca2b5937696c31910160405180910390a3505050565b611e8384848461191f565b611e8f84848484611ff8565b6112e15760405162461bcd60e51b815260040161062a90612c57565b6000908152600260205260409020546001600160a01b0316151590565b6060611ed3826117e3565b6000611eea60408051602081019091526000815290565b90506000815111611f0a57604051806020016040528060008152506114fc565b80611f14846120f9565b604051602001611f25929190612be3565b6040516020818303038152906040529392505050565b6001600160a01b038416611f9657611f9182600d80546000838152600e60205260408120829055600182018355919091527fd7b6990105719101dabeb77144f2a3385c8033acd3af97e9423a695e81ad1eb50155565b611fb9565b826001600160a01b0316846001600160a01b031614611fb957611fb9848361218c565b6001600160a01b038316611fd557611fd08261222d565b6112e1565b836001600160a01b0316836001600160a01b0316146112e1576112e183836122dc565b60006001600160a01b0384163b156120ee57604051630a85bd0160e11b81526001600160a01b0385169063150b7a029061203c903390899088908890600401612ca9565b6020604051808303816000875af1925050508015612077575060408051601f3d908101601f1916820190925261207491810190612ce6565b60015b6120d4573d8080156120a5576040519150601f19603f3d011682016040523d82523d6000602084013e6120aa565b606091505b5080516000036120cc5760405162461bcd60e51b815260040161062a90612c57565b805181602001fd5b6001600160e01b031916630a85bd0160e11b14905061143b565b506001949350505050565b6060600061210683612320565b600101905060008167ffffffffffffffff81111561212657612126612596565b6040519080825280601f01601f191660200182016040528015612150576020820181803683370190505b5090508181016020015b600019016f181899199a1a9b1b9c1cb0b131b232b360811b600a86061a8153600a850494508461215a57509392505050565b6000600161219984611005565b6121a39190612d03565b6000838152600b60205260409020549091508082146121f6576001600160a01b0384166000908152600a602090815260408083208584528252808320548484528184208190558352600b90915290208190555b506001600160a01b039092166000908152600a60209081526040808320948352938152838220829055918152600b90915290812055565b600d5460009061223f90600190612d03565b6000838152600e6020526040812054600d805493945090928490811061226757612267612b5d565b9060005260206000200154905080600d838154811061228857612288612b5d565b6000918252602080832090910192909255828152600e9091526040808220849055858252812055600d8054806122c0576122c0612d16565b6001900381819060005260206000200160009055905550505050565b60006122e783611005565b6001600160a01b039093166000908152600a602090815260408083208684528252808320859055938252600b9052919091209190915550565b60008072184f03e93ff9f4daa797ed6e38ed64bf6a1f0160401b831061235f5772184f03e93ff9f4daa797ed6e38ed64bf6a1f0160401b830492506040015b6d04ee2d6d415b85acef8100000000831061238b576d04ee2d6d415b85acef8100000000830492506020015b662386f26fc1000083106123a957662386f26fc10000830492506010015b6305f5e10083106123c1576305f5e100830492506008015b61271083106123d557612710830492506004015b606483106123e7576064830492506002015b600a83106104f75760010192915050565b6001600160e01b0319811681146114b957600080fd5b60006020828403121561242057600080fd5b81356114fc816123f8565b60005b8381101561244657818101518382015260200161242e565b50506000910152565b6000815180845261246781602086016020860161242b565b601f01601f19169290920160200192915050565b6020815260006114fc602083018461244f565b6000602082840312156124a057600080fd5b5035919050565b80356001600160a01b03811681146124be57600080fd5b919050565b600080604083850312156124d657600080fd5b6124df836124a7565b946020939093013593505050565b60006101208b83528060208401526125078184018c61244f565b90508960408401528860608401528281036080840152612527818961244f565b6001600160a01b039790971660a0840152505092151560c084015260e08301919091526101009091015295945050505050565b60008060006060848603121561256f57600080fd5b612578846124a7565b9250612586602085016124a7565b9150604084013590509250925092565b634e487b7160e01b600052604160045260246000fd5b600067ffffffffffffffff808411156125c7576125c7612596565b604051601f8501601f19908116603f011681019082821181831017156125ef576125ef612596565b8160405280935085815286868601111561260857600080fd5b858560208301376000602087830101525050509392505050565b600082601f83011261263357600080fd5b6114fc838335602085016125ac565b600080600080600060a0868803121561265a57600080fd5b612663866124a7565b945060208601359350604086013567ffffffffffffffff8082111561268757600080fd5b61269389838a01612622565b94506060880135935060808801359150808211156126b057600080fd5b506126bd88828901612622565b9150509295509295909350565b85815260a0602082015260006126e360a083018761244f565b604083019590955250911515606083015260809091015292915050565b6000806040838503121561271357600080fd5b82359150602083013567ffffffffffffffff81111561273157600080fd5b61273d85828601612622565b9150509250929050565b60006020828403121561275957600080fd5b6114fc826124a7565b6020808252825182820181905260009190848201906040850190845b8181101561279a5783518352928401929184019160010161277e565b50909695505050505050565b803580151581146124be57600080fd5b600080604083850312156127c957600080fd5b6127d2836124a7565b91506127e0602084016127a6565b90509250929050565b60008060008060008060c0878903121561280257600080fd5b863567ffffffffffffffff8082111561281a57600080fd5b6128268a838b01612622565b97506020890135965060408901359550606089013591508082111561284a57600080fd5b5061285789828a01612622565b9350506080870135915061286d60a088016127a6565b90509295509295509295565b6000806000806080858703121561288f57600080fd5b612898856124a7565b93506128a6602086016124a7565b925060408501359150606085013567ffffffffffffffff8111156128c957600080fd5b8501601f810187136128da57600080fd5b6128e9878235602084016125ac565b91505092959194509250565b6000806040838503121561290857600080fd5b612911836124a7565b91506127e0602084016124a7565b6000806040838503121561293257600080fd5b823591506127e0602084016124a7565b600181811c9082168061295657607f821691505b60208210810361297657634e487b7160e01b600052602260045260246000fd5b50919050565b6020808252602d908201527f4552433732313a2063616c6c6572206973206e6f7420746f6b656e206f776e6560408201526c1c881bdc88185c1c1c9bdd9959609a1b606082015260800190565b600082516129db81846020870161242b565b9190910192915050565b601f8211156106cb57600081815260208120601f850160051c81016020861015612a0c5750805b601f850160051c820191505b81811015612a2b57828155600101612a18565b505050505050565b815167ffffffffffffffff811115612a4d57612a4d612596565b612a6181612a5b8454612942565b846129e5565b602080601f831160018114612a965760008415612a7e5750858301515b600019600386901b1c1916600185901b178555612a2b565b600085815260208120601f198616915b82811015612ac557888601518255948401946001909101908401612aa6565b5085821015612ae35787850151600019600388901b60f8161c191681555b5050505050600190811b01905550565b634e487b7160e01b600052601160045260246000fd5b808201808211156104f7576104f7612af3565b85815284602082015260a060408201526000612b3b60a083018661244f565b6060830194909452506001600160a01b03919091166080909101529392505050565b634e487b7160e01b600052603260045260246000fd5b600060018201612b8557612b85612af3565b5060010190565b87815260e060208201526000612ba560e083018961244f565b8760408401528660608401528281036080840152612bc3818761244f565b6001600160a01b039590951660a0840152505060c0015295945050505050565b60008351612bf581846020880161242b565b835190830190612c0981836020880161242b565b01949350505050565b60208082526025908201527f4552433732313a207472616e736665722066726f6d20696e636f72726563742060408201526437bbb732b960d91b606082015260800190565b60208082526032908201527f4552433732313a207472616e7366657220746f206e6f6e20455243373231526560408201527131b2b4bb32b91034b6b83632b6b2b73a32b960711b606082015260800190565b6001600160a01b0385811682528416602082015260408101839052608060608201819052600090612cdc9083018461244f565b9695505050505050565b600060208284031215612cf857600080fd5b81516114fc816123f8565b818103818111156104f7576104f7612af3565b634e487b7160e01b600052603160045260246000fdfea26469706673582212209abf731e6a7bda2d01b6e592bf3a39a056fe63d32d4679f72af48d6d9927a59464736f6c63430008140033",
  "linkReferences": {},
  "deployedLinkReferences": {}
}