{
  "_format": "hh-sol-artifact-1",
  "contractName": "TicketMarketplace",
  "sourceName": "src/TicketMarketplace.sol",
  "abi": [
    {
      "inputs": [
        {
          "internalType": "address",
          "name": "_ticketNFTAddress",
          "type": "address"
        }
      ],
      "stateMutability": "nonpayable",
      "type": "constructor"
    },
    {
      "anonymous": false,
      "inputs": [
        {
          "indexed": false,
          "internalType": "uint256",
          "name": "tokenId",
          "type": "uint256"
        }
      ],
      "name": "ListingCancelled",
      "type": "event"
    },
    {
      "anonymous": false,
      "inputs": [
        {
          "indexed": true,
          "internalType": "address",
          "name": "previousOwner",
          "type": "address"
        },
        {
          "indexed": true,
          "internalType": "address",
          "name": "newOwner",
          "type": "address"
        }
      ],
      "name": "OwnershipTransferred",
      "type": "event"
    },
    {
      "anonymous": false,
      "inputs": [
        {
          "indexed": false,
          "internalType": "uint256",
          "name": "tokenId",
          "type": "uint256"
        },
        {
          "indexed": false,
          "internalType": "uint256",
          "name": "price",
          "type": "uint256"
        },
        {
          "indexed": false,
          "internalType": "address",
          "name": "seller",
          "type": "address"
        }
      ],
      "name": "TicketListed",
      "type": "event"
    },
    {
      "anonymous": false,
      "inputs": [
        {
          "indexed": false,
          "internalType": "uint256",
          "name": "tokenId",
          "type": "uint256"
        },
        {
          "indexed": false,
          "internalType": "uint256",
          "name": "newPrice",
          "type": "uint256"
        }
      ],
      "name": "TicketPriceChanged",
      "type": "event"
    },
    {
      "anonymous": false,
      "inputs": [
        {
          "indexed": false,
          "internalType": "uint256",
          "name": "tokenId",
          "type": "uint256"
        },
        {
          "indexed": false,
          "internalType": "uint256",
          "name": "price",
          "type": "uint256"
        },
        {
          "indexed": false,
          "internalType": "address",
          "name": "seller",
          "type": "address"
        },
        {
          "indexed": false,
          "internalType": "address",
          "name": "buyer",
          "type": "address"
        }
      ],
      "name": "TicketSold",
      "type": "event"
    },
    {
      "inputs": [
        {
          "internalType": "uint256",
          "name": "tokenId",
          "type": "uint256"
        }
      ],
      "name": "buyTicket",
      "outputs": [],
      "stateMutability": "payable",
      "type": "function"
    },
    {
      "inputs": [
        {
          "internalType": "uint256",
          "name": "tokenId",
          "type": "uint256"
        }
      ],
      "name": "cancelListing",
      "outputs": [],
      "stateMutability": "nonpayable",
      "type": "function"
    },
    {
      "inputs": [],
      "name": "getActiveListings",
      "outputs": [
        {
          "internalType": "uint256[]",
          "name": "",
          "type": "uint256[]"
        }
      ],
      "stateMutability": "view",
      "type": "function"
    },
    {
      "inputs": [
        {
          "internalType": "uint256",
          "name": "tokenId",
          "type": "uint256"
        },
        {
          "internalType": "uint256",
          "name": "price",
          "type": "uint256"
        }
      ],
      "name": "listTicket",
      "outputs": [],
      "stateMutability": "nonpayable",
      "type": "function"
    },
    {
      "inputs": [
        {
          "internalType": "uint256",
          "name": "",
          "type": "uint256"
        }
      ],
      "name": "listings",
      "outputs": [
        {
          "internalType": "address",
          "name": "seller",
          "type": "address"
        },
        {
          "internalType": "uint256",
          "name": "price",
          "type": "uint256"
        },
        {
          "internalType": "uint256",
          "name": "tokenId",
          "type": "uint256"
        },
        {
          "internalType": "bool",
          "name": "isActive",
          "type": "bool"
        }
      ],
      "stateMutability": "view",
      "type": "function"
    },
    {
      "inputs": [],
      "name": "organizerFeePercent",
      "outputs": [
        {
          "internalType": "uint256",
          "name": "",
          "type": "uint256"
        }
      ],
      "stateMutability": "view",
      "type": "function"
    },
    {
      "inputs": [],
      "name": "owner",
      "outputs": [
        {
          "internalType": "address",
          "name": "",
          "type": "address"
        }
      ],
      "stateMutability": "view",
      "type": "function"
    },
    {
      "inputs": [],
      "name": "platformFeePercent",
      "outputs": [
        {
          "internalType": "uint256",
          "name": "",
          "type": "uint256"
        }
      ],
      "stateMutability": "view",
      "type": "function"
    },
    {
      "inputs": [],
      "name": "renounceOwnership",
      "outputs": [],
      "stateMutability": "nonpayable",
      "type": "function"
    },
    {
      "inputs": [
        {
          "internalType": "uint256",
          "name": "_organizerFeePercent",
          "type": "uint256"
        }
      ],
      "name": "setOrganizerFeePercent",
      "outputs": [],
      "stateMutability": "nonpayable",
      "type": "function"
    },
    {
      "inputs": [
        {
          "internalType": "uint256",
          "name": "_platformFeePercent",
          "type": "uint256"
        }
      ],
      "name": "setPlatformFeePercent",
      "outputs": [],
      "stateMutability": "nonpayable",
      "type": "function"
    },
    {
      "inputs": [
        {
          "internalType": "address",
          "name": "newOwner",
          "type": "address"
        }
      ],
      "name": "transferOwnership",
      "outputs": [],
      "stateMutability": "nonpayable",
      "type": "function"
    },
    {
      "inputs": [
        {
          "internalType": "uint256",
          "name": "tokenId",
          "type": "uint256"
        },
        {
          "internalType": "uint256",
          "name": "newPrice",
          "type": "uint256"
        }
      ],
      "name": "updateListing",
      "outputs": [],
      "stateMutability": "nonpayable",
      "type": "function"
    }
  ],
  "bytecode": "0x608060405260326004556101f460055534801561001b57600080fd5b5060405161162f38038061162f83398101604081905261003a916100bc565b6100433361006c565b60018055600280546001600160a01b0319166001600160a01b03929092169190911790556100ec565b600080546001600160a01b038381166001600160a01b0319831681178455604051919092169283917f8be0079c531659141344cd1fd0a4f28419497f9722a3daafe3b4186f6b6457e09190a35050565b6000602082840312156100ce57600080fd5b81516001600160a01b03811681146100e557600080fd5b9392505050565b611534806100fb6000396000f3fe6080604052600436106100c25760003560e01c806386b504b11161007f5780638da5cb5b116100595780638da5cb5b146101d2578063cab230d2146101fa578063de74e57b1461021a578063f2fde38b1461029757600080fd5b806386b504b11461017157806387c35bc01461019a5780638c639a85146101bc57600080fd5b80630179ea88146100c7578063305a67a8146100e9578063305a905a1461010957806367dd74ca14610129578063680623681461013c578063715018a61461015c575b600080fd5b3480156100d357600080fd5b506100e76100e236600461113e565b6102b7565b005b3480156100f557600080fd5b506100e7610104366004611160565b6103d3565b34801561011557600080fd5b506100e761012436600461113e565b610495565b6100e7610137366004611160565b610781565b34801561014857600080fd5b506100e7610157366004611160565b610d35565b34801561016857600080fd5b506100e7610d8c565b34801561017d57600080fd5b5061018760055481565b6040519081526020015b60405180910390f35b3480156101a657600080fd5b506101af610da0565b6040516101919190611179565b3480156101c857600080fd5b5061018760045481565b3480156101de57600080fd5b506000546040516001600160a01b039091168152602001610191565b34801561020657600080fd5b506100e7610215366004611160565b610f6e565b34801561022657600080fd5b5061026b610235366004611160565b600360208190526000918252604090912080546001820154600283015492909301546001600160a01b0390911692919060ff1684565b604080516001600160a01b03909516855260208501939093529183015215156060820152608001610191565b3480156102a357600080fd5b506100e76102b23660046111d2565b610fc5565b60008281526003602081905260409091209081015460ff166102f45760405162461bcd60e51b81526004016102eb906111f6565b60405180910390fd5b80546001600160a01b0316331461033e5760405162461bcd60e51b815260206004820152600e60248201526d2737ba103a34329039b2b63632b960911b60448201526064016102eb565b6000821161038e5760405162461bcd60e51b815260206004820152601f60248201527f5072696365206d7573742062652067726561746572207468616e207a65726f0060448201526064016102eb565b6001810182905560408051848152602081018490527f82a40b2eb2e166a9a513e909894042d026f115051ab5c019f766ba8b33c28f3f910160405180910390a1505050565b60008181526003602081905260409091209081015460ff166104075760405162461bcd60e51b81526004016102eb906111f6565b80546001600160a01b031633146104515760405162461bcd60e51b815260206004820152600e60248201526d2737ba103a34329039b2b63632b960911b60448201526064016102eb565b60038101805460ff191690556040518281527f411aee90354c51b1b04cd563fcab2617142a9d50da19232d888547c8a1b7fd8a906020015b60405180910390a15050565b6002546040516331a9108f60e11b81526004810184905233916001600160a01b031690636352211e90602401602060405180830381865afa1580156104de573d6000803e3d6000fd5b505050506040513d601f19601f820116820180604052508101906105029190611222565b6001600160a01b03161461054a5760405162461bcd60e51b815260206004820152600f60248201526e2737ba103a37b5b2b71037bbb732b960891b60448201526064016102eb565b6000811161059a5760405162461bcd60e51b815260206004820152601f60248201527f5072696365206d7573742062652067726561746572207468616e207a65726f0060448201526064016102eb565b60025460405163020604bf60e21b81526004810184905230916001600160a01b03169063081812fc90602401602060405180830381865afa1580156105e3573d6000803e3d6000fd5b505050506040513d601f19601f820116820180604052508101906106079190611222565b6001600160a01b03161480610689575060025460405163e985e9c560e01b81523360048201523060248201526001600160a01b039091169063e985e9c590604401602060405180830381865afa158015610665573d6000803e3d6000fd5b505050506040513d601f19601f820116820180604052508101906106899190611254565b6106d55760405162461bcd60e51b815260206004820152601860248201527f4d61726b6574706c616365206e6f7420617070726f766564000000000000000060448201526064016102eb565b604080516080810182523380825260208083018581528385018781526001606080870182815260008b81526003808852908a9020985189546001600160a01b0319166001600160a01b03909116178955945192880192909255915160028701555194909101805460ff1916941515949094179093558351868152908101859052928301527f5ddeb20641397a4006800e63273f4f75df6e6964e4456220df00032d3d160da79101610489565b61078961103b565b60008181526003602081905260409091209081015460ff166107bd5760405162461bcd60e51b81526004016102eb906111f6565b80600101543410156108085760405162461bcd60e51b8152602060048201526014602482015273125b9cdd59999a58da595b9d081c185e5b595b9d60621b60448201526064016102eb565b80546001600160a01b031633036108615760405162461bcd60e51b815260206004820152601c60248201527f53656c6c65722063616e6e6f7420627579206f776e207469636b65740000000060448201526064016102eb565b60025460405163285a238960e11b8152600481018490526000916001600160a01b0316906350b4471290602401600060405180830381865afa1580156108ab573d6000803e3d6000fd5b505050506040513d6000823e601f3d908101601f191682016040526108d3919081019061132b565b505060025460405162b7914360e41b8152600481018590529394506000936001600160a01b039091169250630b7914309150602401600060405180830381865afa158015610925573d6000803e3d6000fd5b505050506040513d6000823e601f3d908101601f1916820160405261094d9190810190611396565b505050955050505050506000612710600454856001015461096e9190611464565b6109789190611481565b9050600061271060055486600101546109919190611464565b61099b9190611481565b90506000818387600101546109b091906114a3565b6109ba91906114a3565b60038701805460ff191690556002548754604051632142170760e11b81526001600160a01b039182166004820152336024820152604481018b905292935016906342842e0e90606401600060405180830381600087803b158015610a1d57600080fd5b505af1158015610a31573d6000803e3d6000fd5b505050506000610a496000546001600160a01b031690565b6001600160a01b03168460405160006040518083038185875af1925050503d8060008114610a93576040519150601f19603f3d011682016040523d82523d6000602084013e610a98565b606091505b5050905080610ae95760405162461bcd60e51b815260206004820152601c60248201527f506c6174666f726d20666565207472616e73666572206661696c65640000000060448201526064016102eb565b6000856001600160a01b03168460405160006040518083038185875af1925050503d8060008114610b36576040519150601f19603f3d011682016040523d82523d6000602084013e610b3b565b606091505b5050905080610b8c5760405162461bcd60e51b815260206004820152601d60248201527f4f7267616e697a657220666565207472616e73666572206661696c656400000060448201526064016102eb565b87546040516000916001600160a01b03169085908381818185875af1925050503d8060008114610bd8576040519150601f19603f3d011682016040523d82523d6000602084013e610bdd565b606091505b5050905080610c265760405162461bcd60e51b815260206004820152601560248201527414d95b1b195c881c185e5b595b9d0819985a5b1959605a1b60448201526064016102eb565b8860010154341115610cca5760018901546000903390610c4690346114a3565b604051600081818185875af1925050503d8060008114610c82576040519150601f19603f3d011682016040523d82523d6000602084013e610c87565b606091505b5050905080610cc85760405162461bcd60e51b815260206004820152600d60248201526c1499599d5b990819985a5b1959609a1b60448201526064016102eb565b505b60018901548954604080518d815260208101939093526001600160a01b0390911682820152336060830152517f44f19a44b8c509adc281ec35927694f6d25e501d0de1764890ab0637b8dcda489181900360800190a1505050505050505050610d3260018055565b50565b610d3d611094565b6107d0811115610d875760405162461bcd60e51b81526020600482015260156024820152744665652063616e6e6f74206578636565642032302560581b60448201526064016102eb565b600555565b610d94611094565b610d9e60006110ee565b565b60606000600260009054906101000a90046001600160a01b03166001600160a01b03166318160ddd6040518163ffffffff1660e01b8152600401602060405180830381865afa158015610df7573d6000803e3d6000fd5b505050506040513d601f19601f82011682018060405250810190610e1b91906114b6565b905060008167ffffffffffffffff811115610e3857610e3861126f565b604051908082528060200260200182016040528015610e61578160200160208202803683370190505b509050600060015b838111610ec9576000818152600360208190526040909120015460ff1615610eb75780838381518110610e9e57610e9e6114cf565b602090810291909101015281610eb3816114e5565b9250505b80610ec1816114e5565b915050610e69565b5060008167ffffffffffffffff811115610ee557610ee561126f565b604051908082528060200260200182016040528015610f0e578160200160208202803683370190505b50905060005b82811015610f6557838181518110610f2e57610f2e6114cf565b6020026020010151828281518110610f4857610f486114cf565b602090810291909101015280610f5d816114e5565b915050610f14565b50949350505050565b610f76611094565b6103e8811115610fc05760405162461bcd60e51b81526020600482015260156024820152744665652063616e6e6f74206578636565642031302560581b60448201526064016102eb565b600455565b610fcd611094565b6001600160a01b0381166110325760405162461bcd60e51b815260206004820152602660248201527f4f776e61626c653a206e6577206f776e657220697320746865207a65726f206160448201526564647265737360d01b60648201526084016102eb565b610d32816110ee565b60026001540361108d5760405162461bcd60e51b815260206004820152601f60248201527f5265656e7472616e637947756172643a207265656e7472616e742063616c6c0060448201526064016102eb565b6002600155565b6000546001600160a01b03163314610d9e5760405162461bcd60e51b815260206004820181905260248201527f4f776e61626c653a2063616c6c6572206973206e6f7420746865206f776e657260448201526064016102eb565b600080546001600160a01b038381166001600160a01b0319831681178455604051919092169283917f8be0079c531659141344cd1fd0a4f28419497f9722a3daafe3b4186f6b6457e09190a35050565b6000806040838503121561115157600080fd5b50508035926020909101359150565b60006020828403121561117257600080fd5b5035919050565b6020808252825182820181905260009190848201906040850190845b818110156111b157835183529284019291840191600101611195565b50909695505050505050565b6001600160a01b0381168114610d3257600080fd5b6000602082840312156111e457600080fd5b81356111ef816111bd565b9392505050565b6020808252601290820152714c697374696e67206e6f742061637469766560701b604082015260600190565b60006020828403121561123457600080fd5b81516111ef816111bd565b8051801515811461124f57600080fd5b919050565b60006020828403121561126657600080fd5b6111ef8261123f565b634e487b7160e01b600052604160045260246000fd5b600082601f83011261129657600080fd5b815167ffffffffffffffff808211156112b1576112b161126f565b604051601f8301601f19908116603f011681019082821181831017156112d9576112d961126f565b816040528381526020925086838588010111156112f557600080fd5b600091505b8382101561131757858201830151818301840152908201906112fa565b600093810190920192909252949350505050565b600080600080600060a0868803121561134357600080fd5b85519450602086015167ffffffffffffffff81111561136157600080fd5b61136d88828901611285565b945050604086015192506113836060870161123f565b9150608086015190509295509295909350565b60008060008060008060008060006101208a8c0312156113b557600080fd5b8951985060208a015167ffffffffffffffff808211156113d457600080fd5b6113e08d838e01611285565b995060408c0151985060608c0151975060808c015191508082111561140457600080fd5b506114118c828d01611285565b95505060a08a0151611422816111bd565b935061143060c08b0161123f565b925060e08a015191506101008a015190509295985092959850929598565b634e487b7160e01b600052601160045260246000fd5b808202811582820484141761147b5761147b61144e565b92915050565b60008261149e57634e487b7160e01b600052601260045260246000fd5b500490565b8181038181111561147b5761147b61144e565b6000602082840312156114c857600080fd5b5051919050565b634e487b7160e01b600052603260045260246000fd5b6000600182016114f7576114f761144e565b506001019056fea2646970667358221220222fae3e92c0cbb6aeaa961f82700344506ec13872728442a5d465da9894628f64736f6c63430008140033",
  "linkReferences": {},
  "deployedLinkReferences": {}
}